{
  "contractName": "MyTokenSale",
  "abi": [
    {
      "inputs": [
        {
          "internalType": "contract MyToken",
          "name": "_tokenContract",
          "type": "address"
        },
        {
          "internalType": "uint256",
          "name": "_tokenPrice",
          "type": "uint256"
        }
      ],
      "stateMutability": "nonpayable",
      "type": "constructor"
    },
    {
      "anonymous": false,
      "inputs": [
        {
          "indexed": false,
          "internalType": "address",
          "name": "_buyer",
          "type": "address"
        },
        {
          "indexed": false,
          "internalType": "uint256",
          "name": "_amount",
          "type": "uint256"
        }
      ],
      "name": "Sell",
      "type": "event"
    },
    {
      "inputs": [],
      "name": "tokenContract",
      "outputs": [
        {
          "internalType": "contract MyToken",
          "name": "",
          "type": "address"
        }
      ],
      "stateMutability": "view",
      "type": "function",
      "constant": true
    },
    {
      "inputs": [],
      "name": "tokenPrice",
      "outputs": [
        {
          "internalType": "uint256",
          "name": "",
          "type": "uint256"
        }
      ],
      "stateMutability": "view",
      "type": "function",
      "constant": true
    },
    {
      "inputs": [],
      "name": "tokenSold",
      "outputs": [
        {
          "internalType": "uint256",
          "name": "",
          "type": "uint256"
        }
      ],
      "stateMutability": "view",
      "type": "function",
      "constant": true
    },
    {
      "inputs": [
        {
          "internalType": "uint256",
          "name": "_numberOfTokens",
          "type": "uint256"
        }
      ],
      "name": "buyTokens",
      "outputs": [],
      "stateMutability": "payable",
      "type": "function",
      "payable": true
    }
  ],
  "bytecode": "0x608060405234801561001057600080fd5b506040516107613803806107618339818101604052810190610032919061016c565b336000806101000a81548173ffffffffffffffffffffffffffffffffffffffff021916908373ffffffffffffffffffffffffffffffffffffffff16021790555081600160006101000a81548173ffffffffffffffffffffffffffffffffffffffff021916908373ffffffffffffffffffffffffffffffffffffffff1602179055508060028190555050506101ac565b600080fd5b600073ffffffffffffffffffffffffffffffffffffffff82169050919050565b60006100f1826100c6565b9050919050565b6000610103826100e6565b9050919050565b610113816100f8565b811461011e57600080fd5b50565b6000815190506101308161010a565b92915050565b6000819050919050565b61014981610136565b811461015457600080fd5b50565b60008151905061016681610140565b92915050565b60008060408385031215610183576101826100c1565b5b600061019185828601610121565b92505060206101a285828601610157565b9150509250929050565b6105a6806101bb6000396000f3fe60806040526004361061003f5760003560e01c80633610724e14610044578063519ee19e1461006057806355a373d61461008b5780637ff9b596146100b6575b600080fd5b61005e60048036038101906100599190610299565b6100e1565b005b34801561006c57600080fd5b506100756101f5565b60405161008291906102d5565b60405180910390f35b34801561009757600080fd5b506100a06101fb565b6040516100ad919061036f565b60405180910390f35b3480156100c257600080fd5b506100cb610221565b6040516100d891906102d5565b60405180910390f35b6100ed81600254610227565b34146100f857600080fd5b80600160009054906101000a900473ffffffffffffffffffffffffffffffffffffffff1673ffffffffffffffffffffffffffffffffffffffff166370a08231306040518263ffffffff1660e01b815260040161015491906103ab565b602060405180830381865afa158015610171573d6000803e3d6000fd5b505050506040513d601f19601f8201168201806040525081019061019591906103db565b10156101a057600080fd5b80600360008282546101b29190610437565b925050819055507f5e5e995ce3133561afceaa51a9a154d5db228cd7525d34df5185582c18d3df0933826040516101ea92919061048d565b60405180910390a150565b60035481565b600160009054906101000a900473ffffffffffffffffffffffffffffffffffffffff1681565b60025481565b60008082148061024f57508282838561024091906104b6565b92508261024d919061053f565b145b61025857600080fd5b92915050565b600080fd5b6000819050919050565b61027681610263565b811461028157600080fd5b50565b6000813590506102938161026d565b92915050565b6000602082840312156102af576102ae61025e565b5b60006102bd84828501610284565b91505092915050565b6102cf81610263565b82525050565b60006020820190506102ea60008301846102c6565b92915050565b600073ffffffffffffffffffffffffffffffffffffffff82169050919050565b6000819050919050565b600061033561033061032b846102f0565b610310565b6102f0565b9050919050565b60006103478261031a565b9050919050565b60006103598261033c565b9050919050565b6103698161034e565b82525050565b60006020820190506103846000830184610360565b92915050565b6000610395826102f0565b9050919050565b6103a58161038a565b82525050565b60006020820190506103c0600083018461039c565b92915050565b6000815190506103d58161026d565b92915050565b6000602082840312156103f1576103f061025e565b5b60006103ff848285016103c6565b91505092915050565b7f4e487b7100000000000000000000000000000000000000000000000000000000600052601160045260246000fd5b600061044282610263565b915061044d83610263565b9250827fffffffffffffffffffffffffffffffffffffffffffffffffffffffffffffffff0382111561048257610481610408565b5b828201905092915050565b60006040820190506104a2600083018561039c565b6104af60208301846102c6565b9392505050565b60006104c182610263565b91506104cc83610263565b9250817fffffffffffffffffffffffffffffffffffffffffffffffffffffffffffffffff048311821515161561050557610504610408565b5b828202905092915050565b7f4e487b7100000000000000000000000000000000000000000000000000000000600052601260045260246000fd5b600061054a82610263565b915061055583610263565b92508261056557610564610510565b5b82820490509291505056fea26469706673582212206caa75ce98c825009d53859fd7c1a29a743dcbd5a28513c01cdb0261cdaa827764736f6c634300080d0033",
  "immutableReferences": {},
  "source": "// SPDX-License-Identifier: MIT\npragma solidity ^0.8.13;\nimport \"./MyToken.sol\";\n\ncontract MyTokenSale{\n    address admin;\n    MyToken public tokenContract;\n    uint public tokenPrice;\n    uint public tokenSold;\n\n    event Sell(address _buyer,uint _amount);\n    constructor(MyToken _tokenContract,uint _tokenPrice){\n        //Assign An Admin\n        admin=msg.sender;\n        //Token Contract\n        tokenContract=_tokenContract;\n        //Token Price\n        tokenPrice=_tokenPrice;\n    }\n    //multiply library\n    function multiply(uint x,uint y) internal pure returns(uint z){\n        require(y==0 ||(z=x*y)/y==x);\n    }\n\n    //Buy Tokens\n    function buyTokens(uint _numberOfTokens)public payable{\n        //require that value is equal to tokens\n        require(msg.value == multiply(_numberOfTokens,tokenPrice));\n        //require that the contract has enough tokens\n        require(tokenContract.balanceOf(address(this))>=_numberOfTokens);\n        //require that a transfer is successful\n        //keep track of tokenSold\n        tokenSold+=_numberOfTokens;\n        //trigger sell event\n        emit Sell(msg.sender,_numberOfTokens);\n    }\n}",
  "sourcePath": "/home/user/ICO_Contract/contracts/MyTokenSale.sol",
  "compiler": {
    "name": "solc",
    "version": "0.8.13+commit.abaa5c0e.Emscripten.clang"
  },
  "schemaVersion": "3.4.8",
  "updatedAt": "2022-09-01T13:14:28.798Z",
  "networkType": "ethereum",
  "devdoc": {
    "kind": "dev",
    "methods": {},
    "version": 1
  },
  "userdoc": {
    "kind": "user",
    "methods": {},
    "version": 1
  }
}