{
  "contractName": "MyTokenSale",
  "abi": [
    {
      "inputs": [
        {
          "internalType": "contract MyToken",
          "name": "_tokenContract",
          "type": "address"
        },
        {
          "internalType": "uint256",
          "name": "_tokenPrice",
          "type": "uint256"
        }
      ],
      "stateMutability": "nonpayable",
      "type": "constructor"
    },
    {
      "anonymous": false,
      "inputs": [
        {
          "indexed": false,
          "internalType": "address",
          "name": "_buyer",
          "type": "address"
        },
        {
          "indexed": false,
          "internalType": "uint256",
          "name": "_amount",
          "type": "uint256"
        }
      ],
      "name": "Sell",
      "type": "event"
    },
    {
      "inputs": [],
      "name": "tokenContract",
      "outputs": [
        {
          "internalType": "contract MyToken",
          "name": "",
          "type": "address"
        }
      ],
      "stateMutability": "view",
      "type": "function",
      "constant": true
    },
    {
      "inputs": [],
      "name": "tokenPrice",
      "outputs": [
        {
          "internalType": "uint256",
          "name": "",
          "type": "uint256"
        }
      ],
      "stateMutability": "view",
      "type": "function",
      "constant": true
    },
    {
      "inputs": [],
      "name": "tokenSold",
      "outputs": [
        {
          "internalType": "uint256",
          "name": "",
          "type": "uint256"
        }
      ],
      "stateMutability": "view",
      "type": "function",
      "constant": true
    },
    {
      "inputs": [
        {
          "internalType": "uint256",
          "name": "_numberOfTokens",
          "type": "uint256"
        }
      ],
      "name": "buyTokens",
      "outputs": [],
      "stateMutability": "payable",
      "type": "function",
      "payable": true
    },
    {
      "inputs": [],
      "name": "endSale",
      "outputs": [],
      "stateMutability": "nonpayable",
      "type": "function"
    }
  ],
  "bytecode": "0x608060405234801561001057600080fd5b506040516108933803806108938339818101604052810190610032919061016c565b336000806101000a81548173ffffffffffffffffffffffffffffffffffffffff021916908373ffffffffffffffffffffffffffffffffffffffff16021790555081600160006101000a81548173ffffffffffffffffffffffffffffffffffffffff021916908373ffffffffffffffffffffffffffffffffffffffff1602179055508060028190555050506101ac565b600080fd5b600073ffffffffffffffffffffffffffffffffffffffff82169050919050565b60006100f1826100c6565b9050919050565b6000610103826100e6565b9050919050565b610113816100f8565b811461011e57600080fd5b50565b6000815190506101308161010a565b92915050565b6000819050919050565b61014981610136565b811461015457600080fd5b50565b60008151905061016681610140565b92915050565b60008060408385031215610183576101826100c1565b5b600061019185828601610121565b92505060206101a285828601610157565b9150509250929050565b6106d8806101bb6000396000f3fe60806040526004361061004a5760003560e01c80633610724e1461004f578063380d831b1461006b578063519ee19e1461008257806355a373d6146100ad5780637ff9b596146100d8575b600080fd5b61006960048036038101906100649190610366565b610103565b005b34801561007757600080fd5b506100806102c0565b005b34801561008e57600080fd5b506100976102c2565b6040516100a491906103a2565b60405180910390f35b3480156100b957600080fd5b506100c26102c8565b6040516100cf919061043c565b60405180910390f35b3480156100e457600080fd5b506100ed6102ee565b6040516100fa91906103a2565b60405180910390f35b61010f816002546102f4565b341461011a57600080fd5b80600160009054906101000a900473ffffffffffffffffffffffffffffffffffffffff1673ffffffffffffffffffffffffffffffffffffffff166370a08231306040518263ffffffff1660e01b81526004016101769190610478565b602060405180830381865afa158015610193573d6000803e3d6000fd5b505050506040513d601f19601f820116820180604052508101906101b791906104a8565b10156101c257600080fd5b600160009054906101000a900473ffffffffffffffffffffffffffffffffffffffff1673ffffffffffffffffffffffffffffffffffffffff1663a9059cbb33836040518363ffffffff1660e01b815260040161021f9291906104d5565b6020604051808303816000875af115801561023e573d6000803e3d6000fd5b505050506040513d601f19601f820116820180604052508101906102629190610536565b61026b57600080fd5b806003600082825461027d9190610592565b925050819055507f5e5e995ce3133561afceaa51a9a154d5db228cd7525d34df5185582c18d3df0933826040516102b59291906104d5565b60405180910390a150565b565b60035481565b600160009054906101000a900473ffffffffffffffffffffffffffffffffffffffff1681565b60025481565b60008082148061031c57508282838561030d91906105e8565b92508261031a9190610671565b145b61032557600080fd5b92915050565b600080fd5b6000819050919050565b61034381610330565b811461034e57600080fd5b50565b6000813590506103608161033a565b92915050565b60006020828403121561037c5761037b61032b565b5b600061038a84828501610351565b91505092915050565b61039c81610330565b82525050565b60006020820190506103b76000830184610393565b92915050565b600073ffffffffffffffffffffffffffffffffffffffff82169050919050565b6000819050919050565b60006104026103fd6103f8846103bd565b6103dd565b6103bd565b9050919050565b6000610414826103e7565b9050919050565b600061042682610409565b9050919050565b6104368161041b565b82525050565b6000602082019050610451600083018461042d565b92915050565b6000610462826103bd565b9050919050565b61047281610457565b82525050565b600060208201905061048d6000830184610469565b92915050565b6000815190506104a28161033a565b92915050565b6000602082840312156104be576104bd61032b565b5b60006104cc84828501610493565b91505092915050565b60006040820190506104ea6000830185610469565b6104f76020830184610393565b9392505050565b60008115159050919050565b610513816104fe565b811461051e57600080fd5b50565b6000815190506105308161050a565b92915050565b60006020828403121561054c5761054b61032b565b5b600061055a84828501610521565b91505092915050565b7f4e487b7100000000000000000000000000000000000000000000000000000000600052601160045260246000fd5b600061059d82610330565b91506105a883610330565b9250827fffffffffffffffffffffffffffffffffffffffffffffffffffffffffffffffff038211156105dd576105dc610563565b5b828201905092915050565b60006105f382610330565b91506105fe83610330565b9250817fffffffffffffffffffffffffffffffffffffffffffffffffffffffffffffffff048311821515161561063757610636610563565b5b828202905092915050565b7f4e487b7100000000000000000000000000000000000000000000000000000000600052601260045260246000fd5b600061067c82610330565b915061068783610330565b92508261069757610696610642565b5b82820490509291505056fea264697066735822122058b69b42188b97e88f0d6095f1ad9a14ccced734be43eba1f49147e9ccc16b0a64736f6c634300080d0033",
  "immutableReferences": {},
  "source": "// SPDX-License-Identifier: MIT\npragma solidity ^0.8.13;\nimport \"./MyToken.sol\";\n\ncontract MyTokenSale{\n    address admin;\n    MyToken public tokenContract;\n    uint public tokenPrice;\n    uint public tokenSold;\n\n    event Sell(address _buyer,uint _amount);\n    constructor(MyToken _tokenContract,uint _tokenPrice){\n        //Assign An Admin\n        admin=msg.sender;\n        //Token Contract\n        tokenContract=_tokenContract;\n        //Token Price\n        tokenPrice=_tokenPrice;\n    }\n    //multiply library\n    function multiply(uint x,uint y) internal pure returns(uint z){\n        require(y==0 ||(z=x*y)/y==x);\n    }\n\n    //Buy Tokens\n    function buyTokens(uint _numberOfTokens)public payable{\n        //require that value is equal to tokens\n        require(msg.value == multiply(_numberOfTokens,tokenPrice));\n        //require that the contract has enough tokens\n        require(tokenContract.balanceOf(address(this))>=_numberOfTokens);\n        //require that a transfer is successful\n        require(tokenContract.transfer(msg.sender, _numberOfTokens));\n        //keep track of tokenSold\n        tokenSold+=_numberOfTokens;\n        //trigger sell event\n        emit Sell(msg.sender,_numberOfTokens);\n    }\n    //ending token sale\n    function endSale() public{\n        //require admin\n        //transfer remaining dapp \n\n    }\n}",
  "sourcePath": "/home/user/ICO_Contract/contracts/MyTokenSale.sol",
  "compiler": {
    "name": "solc",
    "version": "0.8.13+commit.abaa5c0e.Emscripten.clang"
  },
  "schemaVersion": "3.4.8",
  "updatedAt": "2022-09-01T14:30:01.603Z",
  "networkType": "ethereum",
  "devdoc": {
    "kind": "dev",
    "methods": {},
    "version": 1
  },
  "userdoc": {
    "kind": "user",
    "methods": {},
    "version": 1
  }
}