{
  "contractName": "MyToken",
  "abi": [
    {
      "inputs": [
        {
          "internalType": "string",
          "name": "_name",
          "type": "string"
        },
        {
          "internalType": "string",
          "name": "_symbol",
          "type": "string"
        },
        {
          "internalType": "string",
          "name": "_standard",
          "type": "string"
        },
        {
          "internalType": "uint256",
          "name": "_initialSupply",
          "type": "uint256"
        }
      ],
      "stateMutability": "nonpayable",
      "type": "constructor"
    },
    {
      "anonymous": false,
      "inputs": [
        {
          "indexed": true,
          "internalType": "address",
          "name": "_from",
          "type": "address"
        },
        {
          "indexed": true,
          "internalType": "address",
          "name": "_to",
          "type": "address"
        },
        {
          "indexed": false,
          "internalType": "uint256",
          "name": "_amount",
          "type": "uint256"
        }
      ],
      "name": "Transfer",
      "type": "event"
    },
    {
      "inputs": [
        {
          "internalType": "address",
          "name": "",
          "type": "address"
        }
      ],
      "name": "balanceOf",
      "outputs": [
        {
          "internalType": "uint256",
          "name": "",
          "type": "uint256"
        }
      ],
      "stateMutability": "view",
      "type": "function",
      "constant": true
    },
    {
      "inputs": [],
      "name": "name",
      "outputs": [
        {
          "internalType": "string",
          "name": "",
          "type": "string"
        }
      ],
      "stateMutability": "view",
      "type": "function",
      "constant": true
    },
    {
      "inputs": [],
      "name": "standard",
      "outputs": [
        {
          "internalType": "string",
          "name": "",
          "type": "string"
        }
      ],
      "stateMutability": "view",
      "type": "function",
      "constant": true
    },
    {
      "inputs": [],
      "name": "symbol",
      "outputs": [
        {
          "internalType": "string",
          "name": "",
          "type": "string"
        }
      ],
      "stateMutability": "view",
      "type": "function",
      "constant": true
    },
    {
      "inputs": [],
      "name": "totalSupply",
      "outputs": [
        {
          "internalType": "uint256",
          "name": "",
          "type": "uint256"
        }
      ],
      "stateMutability": "view",
      "type": "function",
      "constant": true
    },
    {
      "inputs": [
        {
          "internalType": "address",
          "name": "_to",
          "type": "address"
        },
        {
          "internalType": "uint256",
          "name": "_amount",
          "type": "uint256"
        }
      ],
      "name": "transfer",
      "outputs": [
        {
          "internalType": "bool",
          "name": "success",
          "type": "bool"
        }
      ],
      "stateMutability": "nonpayable",
      "type": "function"
    }
  ],
  "bytecode": "0x60806040523480156200001157600080fd5b5060405162000c8238038062000c8283398181016040528101906200003791906200035f565b80600460003373ffffffffffffffffffffffffffffffffffffffff1673ffffffffffffffffffffffffffffffffffffffff168152602001908152602001600020819055508060038190555083600090805190602001906200009a929190620000d7565b508260019080519060200190620000b3929190620000d7565b508160029080519060200190620000cc929190620000d7565b505050505062000492565b828054620000e5906200045d565b90600052602060002090601f01602090048101928262000109576000855562000155565b82601f106200012457805160ff191683800117855562000155565b8280016001018555821562000155579182015b828111156200015457825182559160200191906001019062000137565b5b50905062000164919062000168565b5090565b5b808211156200018357600081600090555060010162000169565b5090565b6000604051905090565b600080fd5b600080fd5b600080fd5b600080fd5b6000601f19601f8301169050919050565b7f4e487b7100000000000000000000000000000000000000000000000000000000600052604160045260246000fd5b620001f082620001a5565b810181811067ffffffffffffffff82111715620002125762000211620001b6565b5b80604052505050565b60006200022762000187565b9050620002358282620001e5565b919050565b600067ffffffffffffffff821115620002585762000257620001b6565b5b6200026382620001a5565b9050602081019050919050565b60005b838110156200029057808201518184015260208101905062000273565b83811115620002a0576000848401525b50505050565b6000620002bd620002b7846200023a565b6200021b565b905082815260208101848484011115620002dc57620002db620001a0565b5b620002e984828562000270565b509392505050565b600082601f8301126200030957620003086200019b565b5b81516200031b848260208601620002a6565b91505092915050565b6000819050919050565b620003398162000324565b81146200034557600080fd5b50565b60008151905062000359816200032e565b92915050565b600080600080608085870312156200037c576200037b62000191565b5b600085015167ffffffffffffffff8111156200039d576200039c62000196565b5b620003ab87828801620002f1565b945050602085015167ffffffffffffffff811115620003cf57620003ce62000196565b5b620003dd87828801620002f1565b935050604085015167ffffffffffffffff81111562000401576200040062000196565b5b6200040f87828801620002f1565b9250506060620004228782880162000348565b91505092959194509250565b7f4e487b7100000000000000000000000000000000000000000000000000000000600052602260045260246000fd5b600060028204905060018216806200047657607f821691505b6020821081036200048c576200048b6200042e565b5b50919050565b6107e080620004a26000396000f3fe608060405234801561001057600080fd5b50600436106100625760003560e01c806306fdde031461006757806318160ddd146100855780635a3b7e42146100a357806370a08231146100c157806395d89b41146100f1578063a9059cbb1461010f575b600080fd5b61006f61013f565b60405161007c9190610509565b60405180910390f35b61008d6101cd565b60405161009a9190610544565b60405180910390f35b6100ab6101d3565b6040516100b89190610509565b60405180910390f35b6100db60048036038101906100d691906105c2565b610261565b6040516100e89190610544565b60405180910390f35b6100f9610279565b6040516101069190610509565b60405180910390f35b6101296004803603810190610124919061061b565b610307565b6040516101369190610676565b60405180910390f35b6000805461014c906106c0565b80601f0160208091040260200160405190810160405280929190818152602001828054610178906106c0565b80156101c55780601f1061019a576101008083540402835291602001916101c5565b820191906000526020600020905b8154815290600101906020018083116101a857829003601f168201915b505050505081565b60035481565b600280546101e0906106c0565b80601f016020809104026020016040519081016040528092919081815260200182805461020c906106c0565b80156102595780601f1061022e57610100808354040283529160200191610259565b820191906000526020600020905b81548152906001019060200180831161023c57829003601f168201915b505050505081565b60046020528060005260406000206000915090505481565b60018054610286906106c0565b80601f01602080910402602001604051908101604052809291908181526020018280546102b2906106c0565b80156102ff5780601f106102d4576101008083540402835291602001916102ff565b820191906000526020600020905b8154815290600101906020018083116102e257829003601f168201915b505050505081565b600081600460003373ffffffffffffffffffffffffffffffffffffffff1673ffffffffffffffffffffffffffffffffffffffff16815260200190815260200160002054101561035557600080fd5b81600460003373ffffffffffffffffffffffffffffffffffffffff1673ffffffffffffffffffffffffffffffffffffffff16815260200190815260200160002060008282546103a49190610720565b9250508190555081600460008573ffffffffffffffffffffffffffffffffffffffff1673ffffffffffffffffffffffffffffffffffffffff16815260200190815260200160002060008282546103fa9190610754565b925050819055508273ffffffffffffffffffffffffffffffffffffffff163373ffffffffffffffffffffffffffffffffffffffff167fddf252ad1be2c89b69c2b068fc378daa952ba7f163c4a11628f55a4df523b3ef8460405161045e9190610544565b60405180910390a36001905092915050565b600081519050919050565b600082825260208201905092915050565b60005b838110156104aa57808201518184015260208101905061048f565b838111156104b9576000848401525b50505050565b6000601f19601f8301169050919050565b60006104db82610470565b6104e5818561047b565b93506104f581856020860161048c565b6104fe816104bf565b840191505092915050565b6000602082019050818103600083015261052381846104d0565b905092915050565b6000819050919050565b61053e8161052b565b82525050565b60006020820190506105596000830184610535565b92915050565b600080fd5b600073ffffffffffffffffffffffffffffffffffffffff82169050919050565b600061058f82610564565b9050919050565b61059f81610584565b81146105aa57600080fd5b50565b6000813590506105bc81610596565b92915050565b6000602082840312156105d8576105d761055f565b5b60006105e6848285016105ad565b91505092915050565b6105f88161052b565b811461060357600080fd5b50565b600081359050610615816105ef565b92915050565b600080604083850312156106325761063161055f565b5b6000610640858286016105ad565b925050602061065185828601610606565b9150509250929050565b60008115159050919050565b6106708161065b565b82525050565b600060208201905061068b6000830184610667565b92915050565b7f4e487b7100000000000000000000000000000000000000000000000000000000600052602260045260246000fd5b600060028204905060018216806106d857607f821691505b6020821081036106eb576106ea610691565b5b50919050565b7f4e487b7100000000000000000000000000000000000000000000000000000000600052601160045260246000fd5b600061072b8261052b565b91506107368361052b565b925082821015610749576107486106f1565b5b828203905092915050565b600061075f8261052b565b915061076a8361052b565b9250827fffffffffffffffffffffffffffffffffffffffffffffffffffffffffffffffff0382111561079f5761079e6106f1565b5b82820190509291505056fea26469706673582212208273e39d5c937515d78b036c0c71f0ae619c73fd6713f9c0109cf45b9fe1947764736f6c634300080d0033",
  "immutableReferences": {},
  "source": "// SPDX-License-Identifier: MIT\npragma solidity ^0.8.13;\n\ncontract MyToken{\n    string public name; \n    string public symbol;\n    string public standard;\n    //set the total number of tokens\n    //read the total number of tokens\n    uint public totalSupply;\n\n    event Transfer(\n        address indexed _from,\n        address indexed _to,\n        uint _amount);\n\n    mapping(address=>uint) public balanceOf;\n\n    //function name same as contract name then it work like a constructor\n    //it works as a constructor in solidity for version ^0.4.2\n    //but in solidity version ^0.8.0 or more , you can write this function name to constructor\n    //constructor (){\n    // totalSupply=1000;\n    //}\n    constructor(string memory _name,string memory _symbol,string memory _standard,uint _initialSupply){\n        //Allocate the initial supply\n        balanceOf[msg.sender]=_initialSupply;\n        totalSupply=_initialSupply;\n        name=_name;\n        symbol=_symbol;\n        standard=_standard;\n        //transfer\n        //exception if account does not have enough amount\n        //return a boolean\n        //tranfer event\n    }\n    function transfer(address _to,uint _amount)public returns(bool success){\n        require(balanceOf[msg.sender] >= _amount);\n        balanceOf[msg.sender]-= _amount;\n        balanceOf[_to]+=_amount;\n        emit Transfer(msg.sender, _to, _amount);\n        return true;\n    }\n}   \n",
  "sourcePath": "/home/user/ICO_Contract/contracts/MyToken.sol",
  "compiler": {
    "name": "solc",
    "version": "0.8.13+commit.abaa5c0e.Emscripten.clang"
  },
  "schemaVersion": "3.4.8",
  "updatedAt": "2022-08-30T13:58:53.322Z",
  "networkType": "ethereum",
  "devdoc": {
    "kind": "dev",
    "methods": {},
    "version": 1
  },
  "userdoc": {
    "kind": "user",
    "methods": {},
    "version": 1
  }
}